:1000000054C0E6C16EC06DC06CC06BC06AC069C030
:1000100068C067C066C065C064C063C062C00403D6
:10002000090412036F0062006400650076002E0070
:1000300061007400160345006100730079004C00F4
:100040006F00670067006500720012011001000078
:1000500000084242020000010102000109022200E0
:1000600001010080190904000001030000000921BA
:1000700001010001222B000705810308000A050188
:100080000905A1010901A10009300931150026FF68
:1000900000750895048102C0050919012908150099
:1000A0002501750195088102C00011241FBECFE50E
:1000B000D1E0DEBFCDBF10E0A0E6B0E0E2E8F8E0BE
:1000C00003C0C89531960D92A436B107D1F710E060
:1000D000A4E6B0E001C01D92A73AB107E1F71AD338
:1000E000CFC38ECF85B7836085BF8BB780648BBF4E
:1000F00083EC80937D0008951F93B92FA82F162FAE
:100100008091620084FF07C080917D0098E8892774
:1001100080937D0003C08AE580936200912FEEE713
:10012000F0E002C08D9181939150E0F7612F8EE74E
:1001300090E037D11C5F109362001F9108950F93D8
:100140001F93CF93DF9390918D0019160CF0AAC0E6
:1001500020918A00809189008D3209F09BC08AE548
:10016000809361009B3009F095C0CDE9D0E0C21BBF
:10017000D1098881807609F07EC02BE730E01092AB
:100180007B008981882341F410927C0030938C009D
:1001900020938B0092E006C0853031F48A818093F1
:1001A0008E0090E020E86EC0863009F046C08B815A
:1001B000813019F48AE490E01BC0823041F48CE570
:1001C00090E090938C0080938B0092E25AC0833031
:1001D00001F58A81882341F48EE190E090938C00B0
:1001E00080938B0094E04DC0813041F482E290E036
:1001F00090938C0080938B0092E143C0823009F091
:100200003FC084E390E090938C0080938B0096E154
:1002100038C0813241F48EE690E090938C00809358
:100220008B0099E02EC0823259F58EE790E09093D2
:100230008C0080938B009BE224C0883039F480E9E5
:1002400090E090938C0080938B000CC0893021F457
:100250008A8180939000A5CF8A3031F430938C004E
:1002600020938B0091E09ECF8B3009F09ACF83ECE6
:1002700080937D0096CF8C2F9D2F23D2982F92CFE5
:1002800090E020EC8F81882339F48E81891720F447
:10029000982F02C090E020E82093650090936000C2
:1002A00010928D008091610084FF4AC080916000AF
:1002B0008F3F09F445C0682F893008F068E0861B3D
:1002C000809360008091650080FF02C003EC01C054
:1002D0000BE48F5F8093650020918B0030918C0040
:1002E00086FD06C0F32FE22F962FA3E7B0E00FC0E4
:1002F000F32FE22F962FA3E7B0E004C0C895802D1E
:100300008D9331969150D0F704C081918D93915087
:10031000E0F7932F822F860F911D90938C0080938E
:100320008B007727162F83E790E03BD0183018F426
:100330008FEF80936000009372001C5F1093610048
:100340009AE086B3857031F49150D9F710928E00FF
:100350001092880010E0992309F411E08091640064
:10036000811729F0112309F42FD210936400DF9133
:10037000CF911F910F910895A82FB92F80E090E0A1
:1003800041E050EA60956F5F58F42D9138EF822775
:100390009795879510F0842795273F5FC8F3F3CF93
:1003A0000895EADF8D939D930895A6E08827992705
:1003B000AA9569F00197E1F3B099FCCFB09BFECF0D
:1003C00081E09927A6B3019611F0A570D9F7089599
:1003D000CF93CFB7CF93B09BFECFB09B0BC0B09B5A
:1003E00009C0B09B07C0B09B05C0B09B03C0B09BC9
:1003F00001C0D5C00F92DF93C0918A00DD27CF5690
:10040000DF4F012EB09B03C0DF910F90E6CF2F93FB
:100410000F931F934F932FEF4F6F06B300FB20F9FD
:100420005F933F9350E03BE065C016B3012650292F
:1004300050FDC89556B3012700FB25F92F7306B36D
:10044000B1F05027102710FB26F906B22230F0F049
:1004500000C016B3012700FB27F90126502906B278
:100460002430E8F54F77206816B30000F6CF502708
:100470004F7D206206B2102F000000C006B3002698
:100480005029102710FB26F906B2E2CF4F7B06B3A6
:10049000206400C0DACF01265029157006B269F138
:1004A0004E7F2160012F16B328C0002650294D7FB2
:1004B00006B22260102F29C0012650294B7F06B2B8
:1004C0002460012F2DC016B301265029477F2860D4
:1004D000000006B22EC04F7E06B3206130C0422716
:1004E00006B3499300265029102706B24FEF10FBA0
:1004F00020F9297F16B379F2157059F10126502998
:1005000006B2012700FB21F9237F06B371F2002612
:1005100050293150D0F006B2102710FB22F9277E67
:1005200016B351F201265029012700FB06B223F928
:100530002F7C49F2000006B3102710FB24F9002697
:10054000502906B22F7939F270CF10E41ABF002774
:1005500019C03B503195C31BD04010E41ABF08812D
:10056000033C09F10B34F9F0209188001981110F37
:100570001213EDCF4A81441F093651F10D3211F0AB
:10058000013E29F700938F003F915F914F911F919A
:100590000F912F91DF910F90CAB7C6FD1CCFCF915D
:1005A000CFBFCF91189500918F00002369F3109170
:1005B0008D00112379F534307AF130938D0000935A
:1005C000890010918A003BE0311B30938A0024C0DF
:1005D00000918D000130F4F40AE54F7049F4309138
:1005E000610034FD1AC000936100C2E7D0E019C079
:1005F0003091620034FD11C000936200CDE7D0E07D
:1006000010C0052710E000C021C0052710E0C895E4
:1006100008BB14C03AE501C032ED032EC0E0D0E0C3
:1006200032E017B31560C09A08B317BB55E020E855
:100630004FEF20FF052708BB279517951C3F28F78C
:1006400000004552B0F720FF0527279508BB1795F6
:100650001C3FB8F629913A9561F70A7F10918E00F8
:10066000110F08BBC250D04011F01093880010E465
:100670001ABF016017B31A7F402F4A7F54E05A9582
:10068000F1F708BB17BB48BB7FCF20916E003091BC
:100690006F00832F992787FD9A958093660020939A
:1006A00067002091700030917100832F992787FD9A
:1006B0009A95809368002093690081E080936A0096
:1006C0000895F92FE82F86E690E090938C008093B0
:1006D0008B00808180768032D1F48181813021F459
:1006E000D4DF85E090E00895823049F48BE690E015
:1006F00090938C0080938B0081E090E008958A3085
:1007000031F4838180936B0080E090E0089580E075
:1007100090E00895A0E0B0E09FD0802D99278F3F12
:1007200009F081BFB89A20E0E3EBF1EF8E2F9F2F05
:100730000197F1F72F5F2431C9F7B898B99A88E18A
:1007400090E02EE00FB6F894A89581BD0FBE21BDB4
:1007500083E987B987E886B9C5DC789481E080931E
:100760006C00C198A895EBDC8091620084FF05C005
:100770008CDF65E086E690E0BFDC3699F3CF84B18C
:1007800095B140916D00282F392F220F331F959579
:100790008795442341F0280F391F30936F00209331
:1007A0006E0083E907C0280F391F30937100209332
:1007B000700082E987B910926D00442319F481E03A
:1007C00080936D00369ACECFDF92EF92FF920F9317
:1007D0001F93CF93DF9370E8D72EEE24C0E0D0E0D4
:1007E000FE2CFD0CF1BEE1DD082F192F89E004334A
:1007F00018070CF4EF2CD6942196C830D10581F758
:10080000FE2CEA94E1BEE39411C0CFDD84539940FD
:1008100097FF03C0909581959F4F801791071CF417
:10082000E1B6082F192F81B78F5F81BF21B733271A
:100830008F2D99270196821793073CF7E1BE81B768
:10084000A0E0B0E0082E10D0DF91CF911F910F9162
:10085000FF90EF90DF900895E199FECFBFBBAEBB54
:10086000E09A11960DB20895E199FECFBFBBAEBBE1
:100870000DBA11960FB6F894E29AE19A0FBE089558
:02088000FFCFA8
:04088200FF5A5A00BF
:00000001FF
